:100000000C942A000C943B030C9451030C946F0342
:100010000C9447000C9447000C9447000C94470044
:100020000C9447000C9447000C9447000C948D03EB
:100030000C9447000C9447000C9447000C94470024
:100040000C9447000C9447000C9447000C94470014
:100050000C94470011241FBECFE5D8E0DEBFCDBF12
:1000600010E0A0E6B0E0E2E0F9E002C005900D92F9
:10007000A236B107D9F720E0A2E6B0E001C01D9298
:10008000A238B207E1F70E9447020C947F040C9457
:10009000000087B1806487B987B18F7787B987B14E
:1000A0008F7D87B986B1846086B986B1826086B952
:1000B00086B1816086B986B1806886B908958770F7
:1000C00097B1907E97B997B1892B87B986B1806433
:1000D00086B9349BFECF84B195B10895883008F07D
:1000E00089C0413009F040C06130A1F028F0623091
:1000F000F9F0633059F180C04AB321E030E0B90132
:1001000002C0660F771F8A95E2F7CB01842B8ABB6A
:1001100081E0089547B321E030E0B90102C0660FE5
:10012000771F8A95E2F7CB01842B87BB81E0089586
:1001300044B321E030E0B90102C0660F771F8A9511
:10014000E2F7CB01842B84BB81E0089541B321E029
:1001500030E0B90102C0660F771F8A95E2F7CB0144
:10016000842B81BB81E00895411148C06130A9F022
:1001700028F0623009F1633071F142C04AB321E0E6
:1001800030E0B90102C0660F771F8A95E2F7CB0114
:10019000809584238ABB81E0089547B321E030E055
:1001A000B90102C0660F771F8A95E2F7CB018095EF
:1001B000842387BB81E0089544B321E030E0B90196
:1001C00002C0660F771F8A95E2F7CB0180958423E2
:1001D00084BB81E0089541B321E030E0B90102C061
:1001E000660F771F8A95E2F7CB018095842381BB48
:1001F00081E0089580E0089580E0089580E008950A
:1002000080E00895883008F08EC0613049F138F000
:10021000623009F446C0633009F464C086C04130DE
:1002200071F44BB321E030E0B90102C0660F771FD3
:100230008A95E2F7CB01842B8BBB81E008954111B5
:1002400076C04BB321E030E0B90102C0660F771FE2
:100250008A95E2F7CB01809584238BBB81E00895DA
:10026000413071F448B321E030E0B90102C0660FBB
:10027000771F8A95E2F7CB01842B88BB81E0089534
:10028000411157C048B321E030E0B90102C0660F08
:10029000771F8A95E2F7CB018095842388BB81E0A4
:1002A0000895413071F445B321E030E0B90102C056
:1002B000660F771F8A95E2F7CB01842B85BB81E01F
:1002C0000895411138C045B321E030E0B90102C0C2
:1002D000660F771F8A95E2F7CB018095842385BB53
:1002E00081E00895413071F442B321E030E0B9017A
:1002F00002C0660F771F8A95E2F7CB01842B82BB81
:1003000081E00895411119C042B321E030E0B90104
:1003100002C0660F771F8A95E2F7CB018095842390
:1003200082BB81E0089580E0089580E0089580E038
:10033000089580E0089580E0089580E00895813078
:1003400071F028F0823099F08330C9F008958BB3B2
:100350008F708BBB607F8BB3682B6BBB089588B3AA
:100360008F7088BB607F88B3682B68BB089585B3A6
:100370008F7085BB607F85B3682B65BB089582B3A2
:100380008F7082BB607F82B3682B62BB0895E19956
:10039000FECF9FBB8EBB6DBB8CB384608CBB8CB31C
:1003A00082608CBB0895E199FECF9FBB8EBB8CB35E
:1003B00081608CBB8DB3089585B7826085BF85B79A
:1003C0008E7F85BF8BB780648BBF089585B78460AF
:1003D00085BF85B7886085BF8BB780688BBF089560
:1003E00084B78F7B84BF8BB780628BBF08958FB734
:1003F00080688FBF089580E00E945F009C01A8E89C
:10040000B3E10E9470049B01AC01012E1AE05695E5
:100410004795379527951A95D1F7102DADECBCEC83
:100420000E9470049C013695279536952795369540
:10043000279590917600E92FF0E0EE0FFF1FEE591F
:10044000FF4F31832083993019F41092760003C056
:100450009F5F9093760080E020E030E00BC0E82FB3
:10046000F0E0EE0FFF1FEE59FF4F40815181240F46
:10047000351F8F5F8A3098F3ADECBCEC0E9470049E
:10048000969587959695879596958795089540E0DA
:1004900063E082E00E946E0041E063E082E00E943F
:1004A000020140E063E083E00E946E0041E063E00F
:1004B00083E00E94020140E061E082E00E946E0061
:1004C00041E061E082E00E94020141E062E081E0FF
:1004D0000E946E0041E062E083E00E946E0041E015
:1004E00062E084E00E946E0080E090E00E94D30110
:1004F0008F3F11F0809361000E9449000E94CF035A
:100500000E94DC010E94E6010E94F0010E94430467
:100510000E945B040E94F70184ED0E94590484ED5F
:100520000E946E0480917F00811112C040E062E061
:1005300084E00E94020140E062E083E00E94020148
:1005400040E062E081E00E9402010E94EE03EACFF7
:10055000809160008B30E0F140E062E084E00E9436
:10056000020140E062E083E00E94020140E062E0BC
:1005700081E00E94020180917700811104C0809186
:1005800061000E94F903809160008C3058F28091E4
:100590007E00813049F4809161008B3419F08B5FCB
:1005A0008093610010927E0080917D00813049F43B
:1005B00080916100833219F0855080936100109220
:1005C0007D006091610080E090E00E94C701AACFA9
:1005D0008AE0809360001092790010927A00109265
:1005E0007B0010927C000E94FB018093800090931E
:1005F00081000E94F9032091610030E08091800029
:100600009091810005978217930778F040E062E0AF
:1006100084E00E94020141E062E083E00E94020166
:1006200041E062E081E00E9402012091610030E03F
:10063000809180009091810005962817390708F471
:1006400071CF40E062E083E00E94020141E062E09D
:1006500084E00E94020180917700811106C041E090
:1006600062E081E00E9402015DCF40E062E081E053
:100670000E94020157CF1F920F920FB60F921124C2
:100680008F9380917F00811104C081E080937F006F
:1006900002C010927F008F910F900FBE0F901F909D
:1006A00018951F920F920FB60F9211248F9381E02D
:1006B00080937E00809160008F5F80936000109235
:1006C000790010927A0010927B0010927C001092B8
:1006D00077008F910F900FBE0F901F9018951F926B
:1006E0000F920FB60F9211248F9381E080937D00BB
:1006F000809160008F5F809360001092790010926B
:100700007A0010927B0010927C00109277008F91FB
:100710000F900FBE0F901F9018951F920F920FB65B
:100720000F9211242F938F939F93AF93BF93809138
:10073000790090917A00A0917B00B0917C000196A5
:10074000A11DB11D8093790090937A00A0937B0046
:10075000B0937C008B339140A105B10519F48AE078
:1007600080936000809178008F5F809378008D3354
:1007700061F480917700811104C081E0809377005B
:1007800002C01092770010927800BF91AF919F91B4
:100790008F912F910F900FBE0F901F90189541E0F1
:1007A00060E084E00E946E0041E060E085E00E942D
:1007B0006E0041E060E086E00E946E0041E060E093
:1007C00087E00E946E0041E061E083E00E946E00DD
:1007D00041E061E081E00E946E00089540E061E048
:1007E00083E00E94020140E061E081E00E9402019A
:1007F00008951F93CF93DF939DEC899F912D112432
:10080000969596959695192F1295107F990F292FE9
:10081000220F220F920F891BD82FD295D07FC0E0D4
:100820002CC0C11115C041E061E081E00E940201CD
:10083000612F80E00E949F018FE19EE40197F1F714
:1008400000C0000040E061E081E00E94020114C0AD
:1008500041E061E083E00E9402016D2F80E00E9490
:100860009F018FE19EE40197F1F700C0000040E096
:1008700061E083E00E940201CF5FC23090F2DF911D
:10088000CF911F91089583B7877F83BF83B78F7BF5
:1008900083BF89B7816089BF83B7887F83BF83B7F0
:1008A000856083BF83B78F7D83BF83B78F7E83BF10
:1008B000089582BF089585B5886085BD85B580643B
:1008C00085BD85B5887F85BD85B5876085BD85B5C6
:1008D0008F7E85BD85B58F7D85BD089584BD0895C6
:1008E000A29FB001B39FC001A39F700D811D112471
:1008F000911DB29F700D811D1124911D0895F894D2
:02090000FFCF27
:020902000A3CAD
:00000001FF
